:020000040800F2
:10000000002800207D1E0008451C00084B1C00082D
:10001000511C0008571C00085D1C0008000000006F
:10002000000000000000000000000000631C000849
:100030006F1C0008000000007B1C0008871C0008E3
:10004000C51E0008C51E0008C51E0008C51E000804
:10005000C51E0008C51E0008C51E0008C51E0008F4
:10006000C51E0008C51E0008C51E0008C51E0008E4
:10007000C51E0008C51E0008C51E0008C51E0008D4
:10008000C51E0008C51E0008C51E0008C51E0008C4
:10009000C51E0008C51E0008C51E0008C51E0008B4
:1000A000C51E0008C51E0008C51E0008C51E0008A4
:1000B000951C0008C51E000800000000C51E0008B1
:1000C000C51E00080000000000000000C51E00085A
:1000D00000000000C51E0008C51E0008000000004A
:1000E000C51E0008C51E0008C51E0008000000004F
:1000F0000000000000000000000000000000000000
:0C01000000000000000000005FF808F1A3
:10010C0010B5054C237833B9044B13B10448AFF345
:10011C0000800123237010BD8C0000200000000023
:10012C001C35000808B5034B1BB103490348AFF35A
:10013C00008008BD00000000900000201C35000865
:10014C0080B400AF064B1B68012B04D1044B00227A
:10015C001A60012300E000231846BD4680BC70479E
:10016C00A800002080B400AF064B1B68012B04D103
:10017C00044B00221A60012300E000231846BD4600
:10018C0080BC7047AC00002080B400AF064B1B68ED
:10019C00012B04D1044B00221A60012300E0002340
:1001AC001846BD4680BC7047B000002080B500AF3B
:1001BC00244B1B68244A1360244B1B68214A136090
:1001CC004FF48071224802F063F903461A461F4B24
:1001DC001A601D4B1A681B4B1B689A4230D1194B85
:1001EC001A681A4B1B689A422AD11A4B1A68174B79
:1001FC001B689A420ED0154B1B68164A1360134BA2
:10020C001B68002B1CD1144B01221A60134B642267
:10021C001A6015E00D4B1B68002B11D10F4B1B689E
:10022C00013B0E4A13600D4B1B68002B08D10A4B87
:10023C0001221A600A4B01221A60084B64221A60D0
:10024C0000BF80BD0C000020000000201800002022
:10025C000008014024000020A800002030000020ED
:10026C00B400002080B500AF244B5B68244A536077
:10027C00244B5B68214A53604FF40071224802F012
:10028C0007F903461A461F4B5A601D4B5A681B4B05
:10029C005B689A4230D1194B5A681A4B5B689A4288
:1002AC002AD11A4B5A68174B5B689A420ED0154BE1
:1002BC005B68164A5360134B5B68002B1CD1144BC4
:1002CC0001221A60134B64221A6015E00D4B5B6817
:1002DC00002B11D10F4B1B68013B0E4A13600D4BC9
:1002EC001B68002B08D10A4B01221A600A4B012211
:1002FC001A60084B64221A6000BF80BD0C000020FD
:10030C0000000020180000200008014024000020FC
:10031C00AC00002030000020B800002080B500AFF9
:10032C00244B9B68244A9360244B9B68214A93601E
:10033C004FF48061224802F0ABF803461A461F4B7B
:10034C009A601D4B9A681B4B9B689A4230D1194B93
:10035C009A681A4B9B689A422AD11A4B9A68174B87
:10036C009B689A420ED0154B9B68164A9360134BB0
:10037C009B68002B1CD1144B01221A60134B642276
:10038C001A6015E00D4B9B68002B11D10F4B1B68AD
:10039C00013B0E4A13600D4B1B68002B08D10A4B16
:1003AC0001221A600A4B01221A60084B64221A605F
:1003BC0000BF80BD0C0000200000002018000020B1
:1003CC000008014024000020B00000203000002074
:1003DC00BC00002080B582B000AF78600122012102
:1003EC009F4802F06CF8012202219D4802F067F848
:1003FC00012204219A4802F062F80122082198484F
:10040C0002F05DF801221021954802F058F8012203
:10041C002021934802F053F801224021904802F029
:10042C004EF87B68092B00F2168101A252F823F0DA
:10043C0065040008A3040008B9040008ED040008D2
:10044C00210500084B0500087F050008BD050008C4
:10045C00DD0500082506000800220121804802F075
:10046C002EF8002202217E4802F029F800220421F5
:10047C007B4802F024F800220821794802F01FF88A
:10048C0000221021764802F01AF80022202174482C
:10049C0002F015F8E0E000220221714802F00FF89A
:1004AC00002204216E4802F00AF8D5E00022012156
:1004BC006B4802F004F800220221694801F0FFFFAA
:1004CC0000220821664801F0FAFF0022102164483E
:1004DC0001F0F5FF00224021614801F0F0FFBBE084
:1004EC00002201215E4801F0EAFF002202215C4853
:1004FC0001F0E5FF00220421594801F0E0FF002241
:10050C000821574801F0DBFF00224021544801F03C
:10051C00D6FFA1E000220221514801F0D0FF0022B9
:10052C0004214F4801F0CBFF002220214C4801F060
:10053C00C6FF002240214A4801F0C1FF8CE0002296
:10054C000121474801F0BBFF00220421444801F07F
:10055C00B6FF00220821424801F0B1FF0022202101
:10056C003F4801F0ACFF002240213D4801F0A7FFBD
:10057C0072E0002201213A4801F0A1FF002204217F
:10058C00374801F09CFF00220821354801F097FF05
:10059C0000221021324801F092FF00222021304825
:1005AC0001F08DFF002240212D4801F088FF53E01F
:1005BC00002201212A4801F082FF00220221284852
:1005CC0001F07DFF00220421254801F078FF43E073
:1005DC0000220121224801F072FF00220221204852
:1005EC0001F06DFF002204211D4801F068FF00227C
:1005FC0008211B4801F063FF00221021184801F06C
:10060C005EFF00222021164801F059FF00224021F4
:10061C00134801F054FF1FE000220121104801F0A3
:10062C004EFF002202210E4801F049FF0022042156
:10063C000B4801F044FF00220821094801F03FFF5C
:10064C0000222021064801F03AFF002240210448F4
:10065C0001F035FF00E000BF00BF0837BD4680BD8C
:10066C00000C014080B582B000AF786001224FF4DD
:10067C000061BC4801F023FF01224FF48051B948BE
:10068C0001F01DFF01224FF40051B64801F017FF95
:10069C0001224FF48041B34801F011FF01224FF4C5
:1006AC000041B04801F00BFF01224FF48051AE48DD
:1006BC0001F005FF01224FF40051AB4801F0FFFEA1
:1006CC007B68092B00F2488101A252F823F000BF8D
:1006DC00050700084F07000869070008A70700086E
:1006EC00E507000817080008550800089F080008CF
:1006FC00C50800081B09000800224FF40061994846
:10070C0001F0DDFE00224FF48051964801F0D7FE37
:10071C0000224FF40051934801F0D1FE00224FF417
:10072C008041904801F0CBFE00224FF400418D48EF
:10073C0001F0C5FE00224FF480518B4801F0BFFE42
:10074C000BE100224FF48051864801F0B8FE0022E4
:10075C004FF40051834801F0B2FEFEE000224FF44A
:10076C000061804801F0ABFE00224FF480517D48BF
:10077C0001F0A5FE00224FF480417A4801F09FFE63
:10078C0000224FF40041774801F099FE00224FF40B
:10079C000051754801F093FEDFE000224FF4006138
:1007AC00704801F08CFE00224FF480516D4801F02E
:1007BC0086FE00224FF400516A4801F080FE0022B0
:1007CC004FF48041674801F07AFE00224FF400514B
:1007DC00654801F074FEC0E000224FF4805161487E
:1007EC0001F06DFE00224FF400515E4801F067FEEF
:1007FC0000224FF480515C4801F061FE00224FF45E
:10080C000051594801F05BFEA7E000224FF4006153
:10081C00544801F054FE00224FF40051514801F0AD
:10082C004EFE00224FF480414E4801F048FE00225B
:10083C004FF480514C4801F042FE00224FF400511D
:10084C00494801F03CFE88E000224FF40061454825
:10085C0001F035FE00224FF40051424801F02FFE0A
:10086C0000224FF480413F4801F029FE00224FF452
:10087C0000413C4801F023FE00224FF480513A48DD
:10088C0001F01DFE00224FF40051374801F017FE15
:10089C0063E000224FF40061324801F010FE0022A8
:1008AC004FF480512F4801F00AFE00224FF4005102
:1008BC002C4801F004FE50E000224FF4006129485E
:1008CC0001F0FDFD00224FF48051264801F0F7FDA8
:1008DC0000224FF40051234801F0F1FD00224FF4A7
:1008EC008041204801F0EBFD00224FF400411D48EF
:1008FC0001F0E5FD00224FF480511B4801F0DFFDB3
:10090C0000224FF40051184801F0D9FD25E00022D7
:10091C004FF40061134801F0D2FD00224FF48051D6
:10092C00104801F0CCFD00224FF400510D4801F0AD
:10093C00C6FD00224FF480410A4801F0C0FD0022A0
:10094C004FF48051084801F0BAFD00224FF40051D9
:10095C00054801F0B4FD00E000BF00BF0837BD46FC
:10096C0080BD00BF00080140000C014080B582B082
:10097C0000AF78607B68002B03D07B68012B12D012
:10098C0023E0144B1B681846FFF724FD00224FF49C
:10099C008071114801F093FD01224FF400710E4853
:1009AC0001F08DFD11E00B4B5B681846FFF712FD53
:1009BC0001224FF48071084801F081FD00224FF4B0
:1009CC000071054801F07BFD00BF00BF0837BD4634
:1009DC0080BD00BFC8000020000C014080B582B073
:1009EC0000AF78607B68002B03D07B68012B12D0A2
:1009FC0023E0144B1B681846FFF734FE00224FF41B
:100A0C008061114801F05BFD01224FF400610E483A
:100A1C0001F055FD11E00B4B5B681846FFF722FE09
:100A2C0001224FF48061084801F049FD00224FF487
:100A3C000061054801F043FD00BF00BF0837BD460B
:100A4C0080BD00BFD0000020000C014080B500AF7D
:100A5C008B4B1B680A3B032B00F2088101A252F856
:100A6C0023F000BF810A0008AF0A0008490B0008F8
:100A7C00E10B0008824B0B221A60824B1B684FF46F
:100A8C007A7202FB03F3804A13607F4B1B68194692
:100A9C00012001F013F84FF47A71032001F00EF8E5
:100AAC00EBE001F001F9794B1B68794A82FB0312E8
:100ABC009210DB17D31A774A1360744B1968744B76
:100ACC0083FB01239A10CB17D21A13469B001344B5
:100ADC005B00CA1A6F4B5A606F4BDB68012B11D14C
:100AEC006A4B1B68013B694A1360684B1B68002BFF
:100AFC0003D1644B1B68654A13604FF47A71032071
:100B0C0000F0DCFF644B5B68012B40F0B1805C4B68
:100B1C000C221A60614B1B684FF47A7202FB03F3D0
:100B2C00594A5360584B5B681946012000F0C6FFC8
:100B3C004FF47A71032000F0C1FF99E001F0CAF87C
:100B4C00574B1B68524A82FB03129210DB17D31AC5
:100B5C00504A1360524B19684D4B83FB01239A107A
:100B6C00CB17D21A13469B0013445B00CA1A494B8D
:100B7C005A60494BDB68012B11D1494B1B68013B77
:100B8C00474A1360464B1B68002B03D1434B1B6831
:100B9C00434A13604FF47A71032000F08FFF3E4BF1
:100BAC005B68012B66D1364B0D221A603D4B1B68DE
:100BBC004FF47A7202FB03F3334A9360324B9B6817
:100BCC001946012000F07AFF4FF47A71032000F0EF
:100BDC0075FF4FE001F094F8334B1B682C4A82FBF5
:100BEC0003129210DB17D31A2A4A13602E4B196882
:100BFC00274B83FB01239A10CB17D21A13469B0069
:100C0C0013445B00CA1A234B5A60234BDB68012B3D
:100C1C0011D1254B1B68013B234A1360224B1B68E7
:100C2C00002B03D11F4B1B681F4A13604FF47A71C2
:100C3C00032000F043FF184B5B68012B1CD1104BB9
:100C4C000B221A600F4B1B684FF47A7202FB03F3F2
:100C5C000D4A13600C4B1B681946012000F02EFF47
:100C6C004FF47A71032000F029FF05E000BF04E087
:100C7C0000BF02E000BF00E000BF00BF80BD00BFAE
:100C8C00340000204C000020D8000020640000201C
:100C9C0067666666C80000201C010020500000201A
:100CAC0068000020540000206C00002080B500AFCC
:100CBC008B4B1B680E3B032B00F2088101A252F8F0
:100CCC0023F000BFE10C0008410E00080F0D0008D6
:100CDC00A90D0008824B10221A60824B1B684FF43E
:100CEC007A7202FB03F3804A13607F4B1B68194630
:100CFC00022000F0E3FE4FF47A71052000F0DEFED6
:100D0C00EBE001F029F8794B1B68794A82FB03125E
:100D1C009210DB17D31A774A1360744B1968744B13
:100D2C0083FB01239A10CB17D21A13469B00134452
:100D3C005B00CA1A6F4B5A606F4B5B69012B11D168
:100D4C006A4B1B68013B694A1360684B1B68002B9C
:100D5C0003D1644B1B68654A13604FF47A7105200C
:100D6C0000F0ACFE644B9B68012B40F0B1805C4BF7
:100D7C0011221A60614B1B684FF47A7202FB03F369
:100D8C00594A5360584B5B681946022000F096FE96
:100D9C004FF47A71052000F091FE99E000F0F2FF1B
:100DAC00574B1B68524A82FB03129210DB17D31A63
:100DBC00504A1360524B19684D4B83FB01239A1018
:100DCC00CB17D21A13469B0013445B00CA1A494B2B
:100DDC005A60494B5B69012B11D1494B1B68013B94
:100DEC00474A1360464B1B68002B03D1434B1B68CF
:100DFC00434A13604FF47A71052000F05FFE3E4BBE
:100E0C009B68012B66D1364B0F221A603D4B1B6839
:100E1C004FF47A7202FB03F3334A9360324B9B68B4
:100E2C001946022000F04AFE4FF47A71052000F0BA
:100E3C0045FE4FE000F07AFF334B1B682C4A82FBD7
:100E4C0003129210DB17D31A2A4A13602E4B19681F
:100E5C00274B83FB01239A10CB17D21A13469B0006
:100E6C0013445B00CA1A234B5A60234B5B69012B5A
:100E7C0011D1254B1B68013B234A1360224B1B6885
:100E8C00002B03D1214B1B681F4A13604FF47A715E
:100E9C00052000F013FE184B9B68012B1CD1104B46
:100EAC0010221A600F4B1B684FF47A7202FB03F38B
:100EBC000D4A13600C4B1B681946022000F0FEFD16
:100ECC004FF47A71052000F0F9FD05E000BF04E055
:100EDC0000BF02E000BF00E000BF00BF80BD00BF4C
:100EEC00380000205C000020E4000020740000208A
:100EFC0067666666D00000201C01002060000020A0
:100F0C007800002058000020700000204C000020C9
:100F1C0080B500AF904B1B68042B00F2C08101A27E
:100F2C0052F823F0450F00084D0F0008790F000808
:100F3C005B100008B1110008874B01221A60AEE16A
:100F4C00864B1E221A60864B23221A60854B142274
:100F5C001A60854B18221A60FFF7F2F80346012B32
:100F6C0040F096817C4B02221A6091E17B4B1F2250
:100F7C001A607B4B2D221A607A4B15221A607A4B21
:100F8C0019221A60FFF7EEF80346012B13D1774BA9
:100F9C001B680133754A1360754B1B680133744A27
:100FAC001360744B1B680133724A1360724B1B68DD
:100FBC000133714A13606E4B1B68704A82FB03123B
:100FCC009210DB17D31A6E4A1360694B19686B4B7E
:100FDC0083FB01239A10CB17D21A13469B001344A0
:100FEC005B00CA1A664B5A60FFF7CEF80346012B1A
:100FFC0023D15E4B1B68634A13605D4B1B68624ACE
:10100C0013605C4B1B68614A13605B4B1B68604A46
:10101C0013605C4B1B68632B0FDD5B4B1B68632BF6
:10102C000BDD584B05221A60574B05221A60574BA3
:10103C0003221A60564B03221A60FFF781F803460D
:10104C00012B40F02781444B03221A6022E1434BD1
:10105C0021221A60424B2F221A60424B16221A6030
:10106C00414B19221A60FFF77DF80346012B27D15B
:10107C00484B1B680133474A1360474B1B680133CD
:10108C00454A1360394B1B680133384A1360384B9F
:10109C001B680133364A13603E4B1B68632B0FDD14
:1010AC00324B1B68632B0BDD3A4B02221A603A4B16
:1010BC0002221A602D4B05221A602D4B05221A6054
:1010CC00354B1B682D4A82FB03129210DB17D31A87
:1010DC002B4A1360304B1968284B83FB01239A1061
:1010EC00CB17D21A13469B0013445B00CA1A244B2D
:1010FC005A60FFF749F80346012B23D1254B1B6897
:10110C00264A1360244B1B68254A1360174B1B6837
:10111C001C4A1360164B1B681B4A13601F4B1B6841
:10112C00632B0FDD1E4B1B68632B0BDD1B4B02224D
:10113C001A601A4B02221A60124B05221A60124BCB
:10114C0005221A60FEF7FCFF0346012B40F0A48039
:10115C00014B04221A609FE0F000002044000020A4
:10116C00480000203C000020400000204C000020E3
:10117C0058000020500000205C0000206766666666
:10118C00D0000020640000207000002068000020C7
:10119C007400002054000020600000206C0000202F
:1011AC00780000203F4B20221A603F4B2E221A6001
:1011BC003E4B17221A603E4B19221A60FEF7D2FFE3
:1011CC000346012B13D13B4B1B680133394A136087
:1011DC00394B1B680133384A1360384B1B68013399
:1011EC00364A1360364B1B680133354A1360324B59
:1011FC001B68344A82FB03129210DB17D31A324A53
:10120C0013602D4B19682F4B83FB01239A10CB17BE
:10121C00D21A13469B0013445B00CA1A2A4B5A601D
:10122C00FEF7B2FF0346012B23D1224B1B68274A42
:10123C001360214B1B68264A1360204B1B68254A00
:10124C0013601F4B1B68244A1360204B1B68632BD5
:10125C000FDD1F4B1B68632B0BDD1C4B03221A602D
:10126C001B4B03221A601B4B05221A601A4B0522DA
:10127C001A60FEF765FF0346012B0FD1174B0A22AC
:10128C001A60174B0E221A60164B00221A6005E0EA
:10129C0000BF04E000BF02E000BF00E000BF00BFE1
:1012AC0080BD00BF44000020480000203C0000200E
:1012BC0040000020500000205C0000204C0000206A
:1012CC005800002067666666D00000206800002089
:1012DC007400002064000020700000203400002006
:1012EC0038000020F000002080B500AF3A4B1B689E
:1012FC00143B032B64D801A252F823F019130008F5
:10130C003D1300086D1300089D130008334B1B6838
:10131C001846FFF72BFB314B1B6801332F4A136028
:10132C002E4B1B68022B4DD12C4B00221A6049E02E
:10133C002B4B00221A602A4B02225A60274B1B6847
:10134C001846FFF713FB254B1B680133234A136028
:10135C00224B1B68022B37D1204B00221A6033E042
:10136C001F4B00221A601E4B03225A601B4B1B683A
:10137C001846FFF7FBFA194B1B680133174A136029
:10138C00164B1B68022B21D1144B00221A601DE056
:10139C00134B00221A60124B04225A600F4B1B682D
:1013AC001846FFF7E3FA0D4B1B6801330B4A136029
:1013BC000A4B1B68022B0BD1084B00221A6007E06A
:1013CC0000BF06E000BF04E000BF02E000BF00E089
:1013DC0000BF00BF80BD00BF3C000020C00000204B
:1013EC00C800002080B500AF174B1B68182B02D02B
:1013FC00192B12D026E0154B1B681846FFF7EEFA96
:10140C00124B1B680133114A1360104B1B68022BE3
:10141C0015D10E4B00221A6011E00C4B1B681846BC
:10142C00FFF7DCFA094B1B680133084A1360074BC2
:10143C001B68022B05D1054B00221A6001E000BF8E
:10144C0000E000BF00BF80BD40000020C4000020B1
:10145C0080B500AFFFF748FFFFF7C4FF00BF80BDAA
:10146C0080B500AF164B1B681E3B032B25D801A281
:10147C0052F823F09114000897140008B7140008D0
:10148C00A7140008FFF7E2FA18E000F0B1FC012203
:10149C0002210C4801F013F810E000F089FC012245
:1014AC000821084801F00BF808E000F091FC01223B
:1014BC000421044801F003F800E000BF00BF80BD28
:1014CC00440000200008014080B500AF1F4B1B6892
:1014DC00233B0C2B37D801A252F823F01D15000822
:1014EC005315000853150008531500085315000830
:1014FC005315000853150008531500085315000820
:10150C00531500082315000833150008431500086F
:10151C00FFF7CCFB18E000F09BFC012210210C48DB
:10152C0000F0CDFF10E000F083FC012220210848E0
:10153C0000F0C5FF08E000F06BFC012240210448DC
:10154C0000F0BDFF00E000BF00BF80BD48000020E0
:10155C000008014080B500AF8021024800F0C7FFB1
:10156C0000BF80BD0008014080B500AF00F0A6FCB4
:10157C0000F034F800F0BAF800F06CF8114801F003
:10158C0007FC00F06FF90A220A210F4800F038FA24
:10159C000A220A210D4800F033FA4FF4FA720A219C
:1015AC000B4800F02DFA0A220A210A4800F028FA0A
:1015BC004FF47A724FF47A71074800F021FA00F078
:1015CC00D5F9FCE7440100206D140008D51400087F
:1015DC005D1400081D0F00086115000880B590B05F
:1015EC0000AF07F1180328220021184601F088FFEC
:1015FC003B1D00221A605A609A60DA601A6102235D
:10160C00BB610123BB621023FB6200237B6307F1E8
:10161C001803184600F084FF0346002B01D000F09D
:10162C00DBF80F237B600023BB600023FB600023EF
:10163C003B6100237B613B1D0021184601F0F0F952
:10164C000346002B01D000F0C7F800BF4037BD4661
:10165C0080BD000080B586B000AF07F10803002202
:10166C001A605A609A60DA603B4600221A605A602F
:10167C001D4B4FF080421A601B4B41F63F725A6073
:10168C00194B00229A60184B0922DA60164B002283
:10169C001A61154B00229A61134801F029FB03468D
:1016AC00002B01D000F098F84FF48053BB6007F189
:1016BC00080319460C4801F0BFFC0346002B01D06F
:1016CC0000F08AF800233B6000237B603B46194600
:1016DC00054801F087FE0346002B01D000F07CF892
:1016EC0000BF1837BD4680BD4401002080B586B0D0
:1016FC0000AF07F1080300221A605A609A60DA60A2
:10170C00294B9B69284A43F004039361264B9B6940
:10171C0003F004037B607B68234B9B69224A43F0F4
:10172C0008039361204B9B6903F008033B603B6803
:10173C0000224FF6FE011D4800F0C1FE002243F6C8
:10174C007F711B4800F0BBFE4FF6FE03BB6001230C
:10175C00FB6000233B6102237B6107F10803194600
:10176C00124800F01BFD43F67F73BB600123FB6046
:10177C0000233B6102237B6107F1080319460C48E7
:10178C0000F00CFD4FF4E063BB600023FB60012311
:10179C003B6107F108031946044800F0FFFC00BF49
:1017AC001837BD4680BD00BF001002400008014044
:1017BC00000C014080B582B000AF786000F068F892
:1017CC0000F0C2F9FEF7F2FCFEF74CFDFEF7A6FDA9
:1017DC0000BF0837BD4680BD80B400AF72B600BFF5
:1017EC00FEE7000080B483B000AF0346FB71FB79C9
:1017FC00092B30D8FA791A4913469B0013449B00E5
:10180C000B4400221A60FA79154913469B001344C5
:10181C009B000B44043300221A60FA7910491346DA
:10182C009B0013449B000B44083300221A60FA7986
:10183C000B4913469B0013449B000B440C330022B2
:10184C001A70FA79064913469B0013449B000B440B
:10185C00103300221A6000BF0C37BD4680BC7047A5
:10186C008C01002080B582B000AF0023FB7106E034
:10187C00FB791846FFF7B6FFFB790133FB71FB7957
:10188C00092BF5D900BF00BF0837BD4680BD00004D
:10189C0080B483B000AF0023FB715CE0FA7932496D
:1018AC0013469B0013449B000B441B68002B4FD02A
:1018BC00FA792D4913469B0013449B000B440433C7
:1018CC001B68002B32D1FA79274913469B0013442D
:1018DC009B000B440C331B78FA790133D8B22249A4
:1018EC0013469B0013449B000B440C3302461A70A6
:1018FC00FA791D4913469B0013449B000B44083393
:10190C001B68002B24D0F979FA7917480B469B00F9
:10191C000B449B00034408331968134813469B007F
:10192C0013449B0003440433196011E0FA790E4907
:10193C0013469B0013449B000B4404331B68591E35
:10194C00094813469B0013449B000344043319605D
:10195C00FB790133FB71FB79092B9FD900BF00BFC9
:10196C000C37BD4680BC70478C01002080B582B01E
:10197C0000AF0023FB7139E0FA79204913469B0034
:10198C0013449B000B440C331B78002B2BD0FA799F
:10199C001A4913469B0013449B000B441B68984741
:1019AC00FA79164913469B0013449B000B440C33E5
:1019BC001B78013BD8B2114913469B0013449B0082
:1019CC000B440C3302461A70FA790C4913469B00EF
:1019DC0013449B000B4408331B68002B03D1FB7989
:1019EC001846FFF7FFFEFB790133FB71FB79092BDE
:1019FC00C2D900BF00BF0837BD4680BD8C01002096
:101A0C0080B487B000AFF860B9607A600023FB75D2
:101A1C0002E0FB7D0133FB75FA7D264913469B00E2
:101A2C0013449B000B441B68002B02D0FB7D092B3D
:101A3C00EFD9FB7D092B38D8FA7D1E4913469B0044
:101A4C0013449B000B44FA681A60FA7DBB681A4970
:101A5C00A1FB0313D908174813469B0013449B00A2
:101A6C00034404331960FA7D7B681349A1FB03130B
:101A7C00D908104813469B0013449B0003440833B9
:101A8C001960FA7D0B4913469B0013449B000B44D1
:101A9C000C3300221A70FA7DF97D064813469B0020
:101AAC0013449B0003441033196000BF1C37BD4620
:101ABC0080BC70478C010020CDCCCCCC80B483B0E2
:101ACC0000AF78603960094A7B68002142F8231026
:101ADC00074B1B683A6892FBF3F206497B6841F8A6
:101AEC00232000BF0C37BD4680BC70471C01002072
:101AFC007C000020F400002080B483B000AF78603C
:101B0C000F4A7B6852F82330002B13DD0C4A7B689C
:101B1C0052F823305A1E0A497B6841F82320084AA0
:101B2C007B6852F82330002B04DC064A7B680121C9
:101B3C0042F8231000BF0C37BD4680BC704700BF75
:101B4C00F40000201C01002080B500AF0020FFF73E
:101B5C00D3FF0120FFF7D0FF0220FFF7CDFF0320BA
:101B6C00FFF7CAFF0420FFF7C7FF0520FFF7C4FFEC
:101B7C000620FFF7C1FF0720FFF7BEFF0820FFF785
:101B8C00BBFF0920FFF7B8FF00BF80BD80B485B054
:101B9C0000AF154B9B69144A43F001039361124B40
:101BAC009B6903F00103BB60BB680F4BDB690E4AFA
:101BBC0043F08053D3610C4BDB6903F080537B60A3
:101BCC007B680A4B5B68FB60FB6823F0E063FB609F
:101BDC00FB6843F08063FB60044AFB68536000BF02
:101BEC001437BD4680BC7047001002400000014015
:101BFC0080B584B000AF78607B681B68B3F1804F10
:101C0C0013D10C4BDB690B4A43F00103D361094B35
:101C1C00DB6903F00103FB60FB68002200211C2040
:101C2C0000F085FA1C2000F09EFA00BF1037BD466C
:101C3C0080BD00BF0010024080B400AFFEE780B44E
:101C4C0000AFFEE780B400AFFEE780B400AFFEE764
:101C5C0080B400AFFEE780B400AF00BFBD4680BCCF
:101C6C00704780B400AF00BFBD4680BC704780B4E5
:101C7C0000AF00BFBD4680BC704780B500AF00F020
:101C8C0063F900BF80BD000080B500AF024801F0D1
:101C9C00CBF800BF80BD00BF4401002080B400AF72
:101CAC0000BFBD4680BC704780B500AF0122022149
:101CBC00074800F004FC00220421054800F0FFFB5B
:101CCC0000220821024800F0FAFB00BF80BD00BFD3
:101CDC000008014080B500AF00220221074800F047
:101CEC00EEFB00220821054800F0E9FB012204214B
:101CFC00024800F0E4FB00BF80BD00BF00080140BB
:101D0C0080B500AF00220221074800F0D8FB012269
:101D1C000821054800F0D3FB00220421024800F002
:101D2C00CEFB00BF80BD00BF0008014080B500AFF6
:101D3C0001221021074800F0C2FB00222021054897
:101D4C0000F0BDFB00224021024800F0B8FB00BFB0
:101D5C0080BD00BF0008014080B500AF00221021FB
:101D6C00074800F0ACFB00224021054800F0A7FB1F
:101D7C0001222021024800F0A2FB00BF80BD00BF61
:101D8C000008014080B500AF00221021074800F088
:101D9C0096FB01224021054800F091FB00222021F6
:101DAC00024800F08CFB00BF80BD00BF0008014062
:101DBC0080B500AF00220221044800F080FB002215
:101DCC000421024800F07BFB00BF80BD00080140ED
:101DDC0080B500AF00220221044800F070FB002205
:101DEC000821024800F06BFB00BF80BD00080140D9
:101DFC0080B500AF00220421044800F060FB0022F3
:101E0C000821024800F05BFB00BF80BD00080140C8
:101E1C0080B500AF00221021044800F050FB0022D6
:101E2C002021024800F04BFB00BF80BD00080140A0
:101E3C0080B500AF00221021044800F040FB0022C6
:101E4C004021024800F03BFB00BF80BD0008014070
:101E5C0080B500AF00222021044800F030FB0022A6
:101E6C004021024800F02BFB00BF80BD0008014060
:101E7C000C480D490D4A002302E0D458C4500433D9
:101E8C00C4188C42F9D30A4A0A4C002301E01360AF
:101E9C000432A242FBD3FFF701FF01F00DFBFFF769
:101EAC0063FB7047000000208C0000205C350008AC
:101EBC008C00002058020020FEE7000080B500AF27
:101ECC00084B1B68074A43F010031360032000F013
:101EDC0023F90F2000F008F8FFF758FE00231846EE
:101EEC0080BD00BF0020024080B582B000AF78609A
:101EFC00124B1A68124B1B7819464FF47A73B3FBCA
:101F0C00F1F3B2FBF3F3184600F03BF90346002B58
:101F1C0001D001230EE07B680F2B0AD800227968D0
:101F2C004FF0FF3000F003F9064A7B681360002382
:101F3C0000E0012318460837BD4680BD8000002014
:101F4C00880000208400002080B400AF054B1B7873
:101F5C001A46054B1B681344034A136000BFBD4669
:101F6C0080BC7047880000205402002080B400AF71
:101F7C00024B1B681846BD4680BC704754020020BB
:101F8C0080B485B000AF78607B6803F00703FB601A
:101F9C000C4BDB68BB60BA684FF6FF031340BB60A9
:101FAC00FB681A02BB68134343F0BF6343F400336E
:101FBC00BB60044ABB68D36000BF1437BD4680BC0D
:101FCC00704700BF00ED00E080B400AF044BDB684D
:101FDC001B0A03F007031846BD4680BC704700BFC0
:101FEC0000ED00E080B483B000AF0346FB7197F9BD
:101FFC000730002B0BDBFB7903F01F02064997F926
:10200C0007305B09012000FA02F241F8232000BFDF
:10201C000C37BD4680BC704700E100E080B483B053
:10202C0000AF03463960FB7197F90730002B0ADBD0
:10203C003B68DAB20C4997F907301201D2B20B4463
:10204C0083F800230AE03B68DAB20849FB7903F015
:10205C000F03043B1201D2B20B441A7600BF0C37AB
:10206C00BD4680BC704700BF00E100E000ED00E021
:10207C0080B489B000AFF860B9607A60FB6803F097
:10208C000703FB61FB69C3F10703042B28BF04237F
:10209C00BB61FB690433062B02D9FB69033B00E0EF
:1020AC0000237B614FF0FF32BB6902FA03F3DA4382
:1020BC00BB681A407B699A404FF0FF317B6901FA8B
:1020CC0003F3D9437B680B40134318462437BD46B2
:1020DC0080BC704780B582B000AF78607B68013BF4
:1020EC00B3F1807F01D301230FE00A4A7B68013BE7
:1020FC0053600F214FF0FF30FFF790FF054B00228C
:10210C009A60044B07221A60002318460837BD4614
:10211C0080BD00BF10E000E080B582B000AF7860F9
:10212C007868FFF72DFF00BF0837BD4680BD80B52E
:10213C0086B000AF0346B9607A60FB7300237B6105
:10214C00FFF742FF78617A68B9687869FFF790FF0A
:10215C00024697F90F3011461846FFF75FFF00BF94
:10216C001837BD4680BD80B582B000AF0346FB7109
:10217C0097F907301846FFF735FF00BF0837BD4603
:10218C0080BD80B582B000AF78607868FFF7A2FFA1
:10219C00034618460837BD4680BD000080B48BB09E
:1021AC0000AF7860396000237B6200233B6248E11A
:1021BC0001227B6A02FA03F3FB613B681B68FA6934
:1021CC001340BB61BA69FB699A4240F037813B68A6
:1021DC005B68A34A93425ED0A14A934275D8A14A48
:1021EC00934258D09F4A93426FD89F4A934252D001
:1021FC009D4A934269D89D4A93424CD09B4A934244
:10220C0063D89B4A934246D0994A93425DD8122B8D
:10221C002AD8122B59D801A252F823F0A322000875
:10222C007D2200088F220008D1220008D722000846
:10223C00D7220008D7220008D7220008D72200088E
:10224C00D7220008D7220008D7220008D72200087E
:10225C00D7220008D7220008D7220008D72200086E
:10226C008522000899220008824A934213D02CE060
:10227C003B68DB683B6229E03B68DB6804333B620C
:10228C0024E03B68DB6808333B621FE03B68DB689B
:10229C000C333B621AE03B689B68002B02D1042391
:1022AC003B6213E03B689B68012B05D108233B6222
:1022BC007B68FA691A6109E008233B627B68FA695A
:1022CC005A6103E000233B6200E000BFBB69FF2BB7
:1022DC0001D87B6801E07B6804337B61BB69FF2B11
:1022EC0002D87B6A9B0002E07B6A083B9B003B6147
:1022FC007B691A680F213B6901FA03F3DB431A402F
:10230C00396A3B6901FA03F31A437B691A603B682B
:10231C005B6803F08053002B00F09080564B9B6958
:10232C00554A43F001039361534B9B6903F001033E
:10233C00BB60BB68514A7B6A9B08023352F823305E
:10234C00FB607B6A03F003039B000F2202FA03F38A
:10235C00DB43FA681340FB607B68494A93420DD01B
:10236C007B68484A934207D07B68474A934201D125
:10237C00022304E0032302E0012300E000237A6A35
:10238C0002F0030292009340FA681343FB603B494E
:10239C007B6A9B080233FA6841F823203B685B6830
:1023AC0003F48033002B06D0384B1A683749BB69CD
:1023BC0013430B6006E0354B1A68BB69DB433349AA
:1023CC0013400B603B685B6803F40033002B06D0B2
:1023DC002E4B5A682D49BB6913434B6006E02B4BBF
:1023EC005A68BB69DB43294913404B603B685B6807
:1023FC0003F48013002B06D0244B9A682349BB6945
:10240C0013438B6006E0214B9A68BB69DB431F4981
:10241C0013408B603B685B6803F40013002B06D001
:10242C001A4BDA681949BB691343CB6006E0174BAA
:10243C00DA68BB69DB4315491340CB607B6A013317
:10244C007B623B681A687B6A22FA03F3002B7FF4E9
:10245C00AFAE00BF00BF2C37BD4680BC704700BF7D
:10246C00000032100000311000002210000021107A
:10247C00000012100000111000100240000001407A
:10248C0000080140000C0140001001400004014014
:10249C0080B485B000AF78600B467B807B689A680F
:1024AC007B881340002B02D00123FB7301E0002337
:1024BC00FB73FB7B18461437BD4680BC704780B459
:1024CC0083B000AF78600B467B8013467B707B78C3
:1024DC00002B03D07A887B681A6103E07B881A048E
:1024EC007B681A6100BF0C37BD4680BC704780B456
:1024FC0085B000AF78600B467B807B68DB68FB6047
:10250C007A88FB6813401A04FB68D9437B880B401C
:10251C001A437B681A6100BF1437BD4680BC7047F4
:10252C0080B586B000AF78607B68002B01D10123A9
:10253C006CE27B681B6803F00103002B00F08780C2
:10254C00924B5B6803F00C03042B0CD08F4B5B6835
:10255C0003F00C03082B12D18C4B5B6803F4803313
:10256C00B3F5803F0BD1894B1B6803F40033002B70
:10257C006CD07B685B68002B68D1012346E27B68DA
:10258C005B68B3F5803F06D1804B1B687F4A43F4F0
:10259C00803313602EE07B685B68002B0CD17B4B87
:1025AC001B687A4A23F480331360784B1B68774A94
:1025BC0023F4802313601DE07B685B68B3F5A02FC8
:1025CC000CD1724B1B68714A43F4802313606F4B20
:1025DC001B686E4A43F4803313600BE06B4B1B6833
:1025EC006A4A23F480331360684B1B68674A23F4F0
:1025FC00802313607B685B68002B13D0FFF7B6FC5D
:10260C00386108E0FFF7B2FC02463B69D31A642B31
:10261C0001D90323FAE15D4B1B6803F40033002B53
:10262C00F0D014E0FFF7A2FC386108E0FFF79EFC45
:10263C0002463B69D31A642B01D90323E6E1534BC1
:10264C001B6803F40033002BF0D100E000BF7B6863
:10265C001B6803F00203002B63D04C4B5B6803F048
:10266C000C03002B0BD0494B5B6803F00C03082BBD
:10267C001CD1464B5B6803F48033002B16D1434BC3
:10268C001B6803F00203002B05D07B681B69012B30
:10269C0001D00123BAE13D4B1B6823F0F8027B68A3
:1026AC005B69DB00394913430B603AE07B681B69BB
:1026BC00002B20D0364B01221A60FFF757FC3861F3
:1026CC0008E0FFF753FC02463B69D31A022B01D9F1
:1026DC0003239BE12D4B1B6803F00203002BF0D06E
:1026EC002A4B1B6823F0F8027B685B69DB002749E7
:1026FC0013430B6015E0264B00221A60FFF736FCE3
:10270C00386108E0FFF732FC02463B69D31A022B12
:10271C0001D903237AE11D4B1B6803F00203002B44
:10272C00F0D17B681B6803F00803002B3AD07B6860
:10273C009B69002B19D0174B01221A60FFF716FC6E
:10274C00386108E0FFF712FC02463B69D31A022BF2
:10275C0001D903235AE10D4B5B6A03F00203002BF2
:10276C00F0D0012000F0A6FA1CE00A4B00221A60FF
:10277C00FFF7FCFB38610FE0FFF7F8FB02463B6903
:10278C00D31A022B08D9032340E100BF00100240EA
:10279C0000004242800442429E4B5B6A03F00203FB
:1027AC00002BE9D17B681B6803F00403002B00F0BD
:1027BC00A6800023FB75974BDB6903F08053002B3D
:1027CC000DD1944BDB69934A43F08053D361914B09
:1027DC00DB6903F08053BB60BB680123FB758E4B38
:1027EC001B6803F48073002B18D18B4B1B688A4A2F
:1027FC0043F480731360FFF7B9FB386108E0FFF70F
:10280C00B5FB02463B69D31A642B01D90323FDE0C7
:10281C00814B1B6803F48073002BF0D07B68DB6862
:10282C00012B06D17B4B1B6A7A4A43F001031362DE
:10283C002DE07B68DB68002B0CD1764B1B6A754A4C
:10284C0023F001031362734B1B6A724A23F00403D7
:10285C0013621CE07B68DB68052B0CD16D4B1B6A8B
:10286C006C4A43F0040313626A4B1B6A694A43F0D7
:10287C00010313620BE0674B1B6A664A23F00103EA
:10288C001362644B1B6A634A23F0040313627B6874
:10289C00DB68002B15D0FFF769FB38610AE0FFF706
:1028AC0065FB02463B69D31A41F28832934201D947
:1028BC000323ABE0574B1B6A03F00203002BEED053
:1028CC0014E0FFF753FB38610AE0FFF74FFB0246B9
:1028DC003B69D31A41F28832934201D9032395E024
:1028EC004C4B1B6A03F00203002BEED1FB7D012B3A
:1028FC0005D1484BDB69474A23F08053D3617B6891
:10290C00DB69002B00F08180424B5B6803F00C0309
:10291C00082B61D07B68DB69022B46D13F4B002230
:10292C001A60FFF723FB386108E0FFF71FFB024634
:10293C003B69D31A022B01D9032367E0354B1B6883
:10294C0003F00073002BF0D17B681B6AB3F5803F5A
:10295C0008D1304B5B6823F400327B689B682D49AF
:10296C0013434B602B4B5B6823F474127B68196A1E
:10297C007B685B6A0B43274913434B60274B01224F
:10298C001A60FFF7F3FA386108E0FFF7EFFA024636
:10299C003B69D31A022B01D9032337E01D4B1B686B
:1029AC0003F00073002BF0D02FE01C4B00221A60B8
:1029BC00FFF7DCFA386108E0FFF7D8FA02463B690A
:1029CC00D31A022B01D9032320E0124B1B6803F00E
:1029DC000073002BF0D118E07B68DB69012B01D16F
:1029EC00012313E00B4B5B68FB60FB6803F4803244
:1029FC007B681B6A9A4206D1FB6803F470127B68F1
:102A0C005B6A9A4201D0012300E000231846183774
:102A1C00BD4680BD00100240007000406000424284
:102A2C0080B584B000AF786039607B68002B01D131
:102A3C000123D0E06A4B1B6803F007033A689A4203
:102A4C0010D9674B1B6823F0070265493B68134399
:102A5C000B60634B1B6803F007033A689A4201D082
:102A6C000123B8E07B681B6803F00203002B20D025
:102A7C007B681B6803F00403002B05D0594B5B6883
:102A8C00584A43F4E06353607B681B6803F0080307
:102A9C00002B05D0534B5B68524A43F46053536090
:102AAC00504B5B6823F0F0027B689B684D491343E5
:102ABC004B607B681B6803F00103002B40D07B68E4
:102ACC005B68012B07D1474B1B6803F40033002BC9
:102ADC0015D101237FE07B685B68022B07D1414B4A
:102AEC001B6803F00073002B09D1012373E03D4BED
:102AFC001B6803F00203002B01D101236BE0394B5F
:102B0C005B6823F003027B685B68364913434B60B8
:102B1C00FFF72CFAF8600AE0FFF728FA0246FB6888
:102B2C00D31A41F28832934201D9032353E02D4B3F
:102B3C005B6803F00C027B685B689B009A42EBD1EC
:102B4C00274B1B6803F007033A689A4210D2244BB8
:102B5C001B6823F0070222493B6813430B60204B90
:102B6C001B6803F007033A689A4201D0012332E054
:102B7C007B681B6803F00403002B08D0194B5B68BF
:102B8C0023F4E0627B68DB68164913434B607B6877
:102B9C001B6803F00803002B09D0124B5B6823F46D
:102BAC0060527B681B69DB000E4913434B6000F0DD
:102BBC0021F802460B4B5B681B0903F00F030A4913
:102BCC00CB5C22FA03F3094A1360094B1B681846C5
:102BDC00FFF78AF9002318461037BD4680BD00BFA9
:102BEC000020024000100240443500088000002004
:102BFC008400002090B48AB000AF2A4B3C1D0FCB50
:102C0C0084E80F0040F201233B800023FB6100238A
:102C1C00BB6100237B6200237B6100233B62224B60
:102C2C005B68FB61FB6903F00C03042B02D0082BDF
:102C3C0003D02DE01D4B3B622DE0FB699B0C03F098
:102C4C000F0307F12802134413F8243C7B61FB6942
:102C5C0003F48033002B13D0134B5B685B0C03F035
:102C6C00010307F12802134413F8283CBB617B696C
:102C7C000E4A02FB03F2BB69B2FBF3F37B6204E086
:102C8C007B690B4A02FB03F37B627B6A3B6202E0CB
:102C9C00064B3B6200BF3B6A18462837BD4690BCCA
:102CAC00704700BF343500080010024000127A0053
:102CBC0000093D0080B485B000AF78600A4B1B68FA
:102CCC000A4AA2FB03235B0A7A6802FB03F3FB604C
:102CDC0000BFFB685A1EFA60002BF9D100BF00BF81
:102CEC001437BD4680BC704780000020D34D621065
:102CFC0080B582B000AF78607B68002B01D10123D6
:102D0C0041E07B6893F83D30DBB2002B06D17B6849
:102D1C00002283F83C207868FEF76AFF7B68022269
:102D2C0083F83D207B681A687B680433194610468B
:102D3C0000F06AFA7B68012283F846207B68012246
:102D4C0083F83E207B68012283F83F207B680122B8
:102D5C0083F840207B68012283F841207B680122A4
:102D6C0083F842207B68012283F843207B68012290
:102D7C0083F844207B68012283F845207B6801227C
:102D8C0083F83D20002318460837BD4680BD00005F
:102D9C0080B485B000AF78607B6893F83D30DBB2CF
:102DAC00012B01D0012335E07B68022283F83D2002
:102DBC007B681B68DA687B681B6842F00102DA608A
:102DCC007B681B68164A934209D07B681B68B3F179
:102DDC00804F04D07B681B68124A934211D17B68E8
:102DEC001B689B6803F00703FB60FB68062B10D085
:102DFC007B681B681A687B681B6842F001021A60CA
:102E0C0007E07B681B681A687B681B6842F001024C
:102E1C001A60002318461437BD4680BC704700BFAB
:102E2C00002C01400004004080B582B000AF7860F7
:102E3C007B681B681B6903F00203022B22D17B68A1
:102E4C001B68DB6803F00203022B1BD17B681B6839
:102E5C006FF002021A617B6801221A777B681B688B
:102E6C009B6903F00303002B03D0786800F0B1F9E1
:102E7C0005E0786800F0A4F9786800F0B3F97B6895
:102E8C0000221A777B681B681B6903F00403042B70
:102E9C0022D17B681B68DB6803F00403042B1BD175
:102EAC007B681B686FF004021A617B6802221A7738
:102EBC007B681B689B6903F44073002B03D0786814
:102ECC0000F087F905E0786800F07AF9786800F08E
:102EDC0089F97B6800221A777B681B681B6903F0F1
:102EEC000803082B22D17B681B68DB6803F00803FE
:102EFC00082B1BD17B681B686FF008021A617B687A
:102F0C0004221A777B681B68DB6903F00303002B30
:102F1C0003D0786800F05DF905E0786800F050F9AE
:102F2C00786800F05FF97B6800221A777B681B6871
:102F3C001B6903F01003102B22D17B681B68DB6824
:102F4C0003F01003102B1BD17B681B686FF0100271
:102F5C001A617B6808221A777B681B68DB6903F4AB
:102F6C004073002B03D0786800F033F905E07868E3
:102F7C0000F026F9786800F035F97B6800221A77A2
:102F8C007B681B681B6903F00103012B0ED17B6866
:102F9C001B68DB6803F00103012B07D17B681B68FE
:102FAC006FF001021A617868FEF704FC7B681B68FD
:102FBC001B6903F08003802B0ED17B681B68DB68D8
:102FCC0003F08003802B07D17B681B686FF08002B5
:102FDC001A61786800F067FA7B681B681B6903F05C
:102FEC004003402B0ED17B681B68DB6803F0400369
:102FFC00402B07D17B681B686FF040021A61786820
:10300C0000F0F9F87B681B681B6903F02003202B88
:10301C000ED17B681B68DB6803F02003202B07D1E3
:10302C007B681B686FF020021A61786800F032FA36
:10303C0000BF0837BD4680BD80B584B000AF786056
:10304C0039607B6893F83C30012B01D10223B3E04B
:10305C007B68012283F83C207B68022283F83D20A8
:10306C007B681B689B68FB60FB6823F07703FB6045
:10307C00FB6823F47F43FB607B681B68FA689A60EB
:10308C003B681B68B3F5005F3ED0B3F5005F00F200
:10309C008780B3F5805F00F08580B3F5805F7FD8C3
:1030AC00702B1AD0702B7BD8602B50D0602B77D81C
:1030BC00502B3CD0502B73D8402B58D0402B6FD872
:1030CC00302B64D0302B6BD8202B60D0202B67D8C2
:1030DC00002B5CD0102B5AD062E07B6818683B68E0
:1030EC0099683B685A683B68DB6800F05CF97B6860
:1030FC001B689B68FB60FB6843F07703FB607B6895
:10310C001B68FA689A604EE07B6818683B6899689F
:10311C003B685A683B68DB6800F045F97B681B68C4
:10312C009A687B681B6842F480429A603BE07B683B
:10313C0018683B6859683B68DB681A4600F0BCF8B5
:10314C007B681B685021184600F013F92BE07B6854
:10315C0018683B6859683B68DB681A4600F0DAF877
:10316C007B681B686021184600F003F91BE07B6844
:10317C0018683B6859683B68DB681A4600F09CF895
:10318C007B681B684021184600F0F3F80BE07B6865
:10319C001A683B681B681946104600F0EAF802E012
:1031AC0000BF00E000BF7B68012283F83D207B68F4
:1031BC00002283F83C20002318461037BD4680BD02
:1031CC0080B483B000AF786000BF0C37BD4680BCC4
:1031DC00704780B483B000AF786000BF0C37BD4639
:1031EC0080BC704780B483B000AF786000BF0C37F0
:1031FC00BD4680BC704780B483B000AF786000BF20
:10320C000C37BD4680BC704780B485B000AF786089
:10321C0039607B681B68FB607B68254A934207D04A
:10322C007B68B3F1804F03D07B68224A934208D16C
:10323C00FB6823F07003FB603B685B68FA68134320
:10324C00FB607B681A4A934207D07B68B3F1804FCE
:10325C0003D07B68174A934208D1FB6823F4407370
:10326C00FB603B68DB68FA681343FB60FB6823F088
:10327C0080023B685B691343FB607B68FA681A60E9
:10328C003B689A687B68DA623B681A687B689A626A
:10329C007B68074A934203D13B681A697B681A63BF
:1032AC007B6801225A6100BF1437BD4680BC704751
:1032BC00002C01400004004080B487B000AFF860DF
:1032CC00B9607A60FB681B6A7B61FB681B6A23F040
:1032DC000102FB681A62FB689B693B613B6923F046
:1032EC00F0033B617B681B013A6913433B617B69CB
:1032FC0023F00A037B617A69BB6813437B61FB682B
:10330C003A699A61FB687A691A6200BF1C37BD463C
:10331C0080BC704780B487B000AFF860B9607A6049
:10332C00FB681B6A23F01002FB681A62FB689B693E
:10333C007B61FB681B6A3B617B6923F470437B6197
:10334C007B681B037A6913437B613B6923F0A00301
:10335C003B61BB681B013A6913433B61FB687A69AB
:10336C009A61FB683A691A6200BF1C37BD4680BC83
:10337C00704780B485B000AF786039607B689B681B
:10338C00FB60FB6823F07003FB603A68FB68134337
:10339C0043F00703FB607B68FA689A6000BF143740
:1033AC00BD4680BC704780B487B000AFF860B96090
:1033BC007A603B60FB689B687B617B6923F47F438D
:1033CC007B613B681A027B681A43BB6813437A69BA
:1033DC0013437B61FB687A699A6000BF1C37BD465A
:1033EC0080BC704780B485B000AF786039607B6872
:1033FC0093F83C30012B01D1022341E07B68012280
:10340C0083F83C207B68022283F83D207B681B6894
:10341C005B68FB607B681B689B68BB60FB6823F088
:10342C007003FB603B681B68FA681343FB607B68A6
:10343C001B68FA685A607B681B68144A934209D06F
:10344C007B681B68B3F1804F04D07B681B68104A03
:10345C0093420CD1BB6823F08003BB603B685B6874
:10346C00BA681343BB607B681B68BA689A607B6858
:10347C00012283F83D207B68002283F83C20002346
:10348C0018461437BD4680BC704700BF002C014065
:10349C000004004080B483B000AF786000BF0C37EC
:1034AC00BD4680BC704780B483B000AF786000BF6D
:1034BC000C37BD4680BC704770B500260C4D0D4CCA
:1034CC00641BA410A64209D100F022F800260A4D74
:1034DC000A4C641BA410A64205D170BD55F8043BE0
:1034EC0098470136EEE755F8043B98470136F2E76A
:1034FC005435000854350008543500085835000878
:10350C0003460244934200D1704703F8011BF9E7CC
:10351C00F8B500BFF8BC08BC9E467047F8B500BFB4
:08352C00F8BC08BC9E46704784
:1035340002030405060708090A0B0C0D0E0F1010F0
:10354400000000000000000001020304060708094F
:043554003101000839
:043558000D01000859
:10355C00010000000100000001000000010000005B
:10356C00010000000100000001000000010000004B
:10357C00010000000100000001000000010000003B
:10358C00640000000A0000000E000000140000009F
:10359C00180000001E0000002300000005000000C1
:1035AC000300000002000000050000000300000002
:1035BC0002000000050000000300000002000000F3
:1035CC000500000003000000020000000A000000DB
:0C35DC000024F4001000000001000000BA
:0400000508001E7D54
:00000001FF
